{
  "transactions": [
    {
      "hash": "0x2ae2180ff7ddf0fd5f82e0596332ce8e5b4856e915b0a19978af4ed99542864c",
      "transactionType": "CALL",
      "contractName": null,
      "contractAddress": "0x779877a7b0d9e8603169ddbd7836e478b4624789",
      "function": "transferAndCall(address,uint256,bytes)",
      "arguments": [
        "0x9DdfaCa8183c41ad55329BdeeD9F6A8d53168B1B",
        "3000000000000000000",
        "0x2aa6322141618e1b4d416efdfca6a73583a85bc762bd2913169bd2bbde09d523"
      ],
      "transaction": {
        "from": "0x05c74a517fd436e082f9785638815c14b0d3a990",
        "to": "0x779877a7b0d9e8603169ddbd7836e478b4624789",
        "gas": "0x14cbb",
        "value": "0x0",
        "input": "0x4000aea00000000000000000000000009ddfaca8183c41ad55329bdeed9f6a8d53168b1b00000000000000000000000000000000000000000000000029a2241af62c0000000000000000000000000000000000000000000000000000000000000000006000000000000000000000000000000000000000000000000000000000000000202aa6322141618e1b4d416efdfca6a73583a85bc762bd2913169bd2bbde09d523",
        "nonce": "0x22",
        "chainId": "0xaa36a7"
      },
      "additionalContracts": [],
      "isFixedGasLimit": false
    }
  ],
  "receipts": [
    {
      "status": "0x1",
      "cumulativeGasUsed": "0x11d5ab3",
      "logs": [
        {
          "address": "0x779877a7b0d9e8603169ddbd7836e478b4624789",
          "topics": [
            "0xddf252ad1be2c89b69c2b068fc378daa952ba7f163c4a11628f55a4df523b3ef",
            "0x00000000000000000000000005c74a517fd436e082f9785638815c14b0d3a990",
            "0x0000000000000000000000009ddfaca8183c41ad55329bdeed9f6a8d53168b1b"
          ],
          "data": "0x00000000000000000000000000000000000000000000000029a2241af62c0000",
          "blockHash": "0x717d8b1438bea23ee97cf2bc6e99f80ff92fb761d9ce29896ae2f9b09603e9ab",
          "blockNumber": "0x897ee5",
          "transactionHash": "0x2ae2180ff7ddf0fd5f82e0596332ce8e5b4856e915b0a19978af4ed99542864c",
          "transactionIndex": "0xd2",
          "logIndex": "0xfd",
          "removed": false
        },
        {
          "address": "0x779877a7b0d9e8603169ddbd7836e478b4624789",
          "topics": [
            "0xe19260aff97b920c7df27010903aeb9c8d2be5d310a2c67824cf3f15396e4c16",
            "0x00000000000000000000000005c74a517fd436e082f9785638815c14b0d3a990",
            "0x0000000000000000000000009ddfaca8183c41ad55329bdeed9f6a8d53168b1b"
          ],
          "data": "0x00000000000000000000000000000000000000000000000029a2241af62c0000000000000000000000000000000000000000000000000000000000000000004000000000000000000000000000000000000000000000000000000000000000202aa6322141618e1b4d416efdfca6a73583a85bc762bd2913169bd2bbde09d523",
          "blockHash": "0x717d8b1438bea23ee97cf2bc6e99f80ff92fb761d9ce29896ae2f9b09603e9ab",
          "blockNumber": "0x897ee5",
          "transactionHash": "0x2ae2180ff7ddf0fd5f82e0596332ce8e5b4856e915b0a19978af4ed99542864c",
          "transactionIndex": "0xd2",
          "logIndex": "0xfe",
          "removed": false
        },
        {
          "address": "0x9ddfaca8183c41ad55329bdeed9f6a8d53168b1b",
          "topics": [
            "0x1ced9348ff549fceab2ac57cd3a9de38edaaab274b725ee82c23e8fc8c4eec7a",
            "0x2aa6322141618e1b4d416efdfca6a73583a85bc762bd2913169bd2bbde09d523"
          ],
          "data": "0x0000000000000000000000000000000000000000000000015ac23637e77d8dd600000000000000000000000000000000000000000000000184645a52dda98dd6",
          "blockHash": "0x717d8b1438bea23ee97cf2bc6e99f80ff92fb761d9ce29896ae2f9b09603e9ab",
          "blockNumber": "0x897ee5",
          "transactionHash": "0x2ae2180ff7ddf0fd5f82e0596332ce8e5b4856e915b0a19978af4ed99542864c",
          "transactionIndex": "0xd2",
          "logIndex": "0xff",
          "removed": false
        }
      ],
      "logsBloom": "0x000000040000000000000000000000000000000000200000000000000200000000000000000200000000000000000000000000000000000000000000000000000000000000000000000000080000000000000000000000000000200000200000080000000000000000000000000000000000000000000000000000100000400000000000000000000000000100008000000000a000000000000000000000000000000000000040000000000001000000000000000000000000000400000000000000000a000000000000000000000000000000000000000100000000000000000010000400000004800000000000000000000000000000000000000000000000",
      "type": "0x2",
      "transactionHash": "0x2ae2180ff7ddf0fd5f82e0596332ce8e5b4856e915b0a19978af4ed99542864c",
      "transactionIndex": "0xd2",
      "blockHash": "0x717d8b1438bea23ee97cf2bc6e99f80ff92fb761d9ce29896ae2f9b09603e9ab",
      "blockNumber": "0x897ee5",
      "gasUsed": "0xf0e5",
      "effectiveGasPrice": "0x44d354",
      "from": "0x05c74a517fd436e082f9785638815c14b0d3a990",
      "to": "0x779877a7b0d9e8603169ddbd7836e478b4624789",
      "contractAddress": null
    }
  ],
  "libraries": [],
  "pending": [],
  "returns": {},
  "timestamp": 1755518221502,
  "chain": 11155111,
  "commit": null
}